:020000040800F2
:10000000E89100206D020008D7030008D303000820
:10001000D503000829030008750700080000000048
:10002000000000000000000000000000AD0100081A
:100030002B030008000000000902000895050008D5
:10004000870200088702000887020008870200086C
:10005000870200088702000887020008870200085C
:10006000870200088702000887020008870200084C
:10007000870200088702000887020008870200083C
:1000800087020008870200088702000800000000BD
:1000900000000000000000000000000087020008CF
:1000A000870200088702000887020008870200080C
:1000B00087020008870200088702000887020008FC
:1000C00087020008870200088702000887020008EC
:1000D000870200088702000887020008000000006D
:1000E000870200088702000887020008000000005D
:1000F000000000000000000000000000870200086F
:10010000000000008702000887020008870200083C
:1001100000000000000000000000000000000000DF
:10012000870200088702000887020008870200088B
:10013000870200080000000000000000000000002E
:10014000000000000000000000000000870200081E
:10015000870200088702000887020008870200085B
:10016000870200088702000800000000000000006D
:10017000000000000000000000000000000000007F
:1001800000000000870200080000000000000000DE
:1001900087020008DFF810D000F0B4F800480047EC
:1001A000050B0008AFF30080E89100202C4B196884
:1001B0000868B0E8F04F80F30988BFF36F8F4FF005
:1001C000000080F3118870470000000008480068B4
:1001D000006880F308884FF0000080F3148862B64E
:1001E00061B6BFF34F8FBFF36F8F00DF00BF00BF5B
:1001F00008ED00E0DFF80C00016841F470010160D7
:10020000704700BF88ED00E0EFF30980BFF36F8F08
:10021000134B1A681EF0100F08BF20ED108A20E95A
:10022000F04F106009B44FF0500080F31188BFF315
:100230004F8FBFF36F8F01F0F5FA4FF0000080F39E
:10024000118809BC19680868B0E8F04F1EF0100F5B
:1002500008BFB0EC108A80F30988BFF36F8F704736
:100260004C000020EFF305807047000006488047EF
:1002700006480047FEE7FEE7FEE7FEE7FEE7FEE78B
:10028000FEE7FEE7FEE7FEE7C1050008950100086E
:1002900040EA01039B0703D009E008C9121F08C008
:1002A000042AFAD203E011F8013B00F8013B521E88
:1002B000F9D27047D2B201E000F8012B491EFBD2FF
:1002C00070470022F6E710B513460A460446194661
:1002D000FFF7F0FF204610BD30B50B460146002069
:1002E0002022012409E021FA02F59D4205D303FAF8
:1002F00002F5491B04FA02F52844151EA2F1010279
:10030000F1DC30BD064C074D06E0E06840F001032B
:1003100094E8070098471034AC42F6D3FFF73EFF4D
:100320005820000878200008FEE770472DE9F041CA
:10033000002201274FF0030C07FA02F50B682B404F
:10034000AB422CD1066853000CFA03F4A6430660B6
:100350000E79D0F800809E4046EA080606600E79C5
:10036000012E01D0022E12D18668A64386604E79F6
:10037000D0F808809E4046EA080686604668AE438C
:10038000466045688E799640B6B235434560C5688B
:10039000A543C560CC799C40C3681C43C460521C13
:1003A000102AC9D3BDE8F08110B54B07DB0E9A4087
:1003B000C90800EB8100016A0F249C40A14301623F
:1003C000016A1143016210BD0904816170478161B6
:1003D0007047FEE7FEE7704702490843024908609C
:1003E000704700000000FA050CED00E0054A002906
:1003F00003D0116801431160704711688143116097
:100400007047000030380240054A002903D01168C7
:10041000014311607047116881431160704700000B
:100420004438024070B5244B196801F00C01234C8C
:1004300000291ED0661004291DD008291DD0046093
:10044000196801F0F00109091D4A545C0168E14096
:1004500041601C6804F4E054A40A145D21FA04F419
:1004600084601B6803F460435B0BD25CD140C160C5
:1004700070BD0460E4E70660E2E70F4A121F1168EE
:10048000C1F38055116801F03F0135B1B6FBF1F1C0
:100490001468C4F38814614305E0B4FBF1F11468F7
:1004A000C4F3881461431268C2F30142521C520023
:1004B000B1FBF2F10160C3E7083802400024F40008
:1004C000000000200CB50022019200922649086825
:1004D00040F4803008604FF4A043086800F4003016
:1004E00000900198401C0190009810B90198984222
:1004F000F3D10868800302D50120009000E000924B
:10050000009801282FD118484030026842F08052EC
:1005100002601648026842F4404202601248083005
:100520000268026002680260026842F4805202605F
:10053000031F0F4A1A600A6842F080720A600A6854
:100540009201FCD50B4940F202720A60016821F069
:1005500003010160016841F0020101600168C1F31B
:1005600081010229FAD10CBD003802400070004020
:1005700019544107003C02404FF0E021042804D008
:10058000086920F0040008617047086940F0040021
:100590000861704710B5502080F31188BFF34F8F6A
:1005A000BFF36F8F01F094FB18B104494FF08050F6
:1005B0000860002080F3118810BD000004ED00E009
:1005C00010B51248016841F47001016010480168DB
:1005D00041F0010101600E4A0021083211600268F9
:1005E0000C4B1A400260031D0B4A1A60026822F489
:1005F0008022026006480C300160FFF763FF034968
:100600004FF000608039086010BD000088ED00E008
:1006100000380240FFFFF6FE1030002470B586B0AF
:10062000054601210846FFF7E1FE01211020FFF7F2
:10063000EBFE194E072209213046FFF7B5FE0722CF
:100640000A213046FFF7B0FE02208DF81400002486
:100650008DF816404FF4C06004908DF817408DF867
:10066000154004A93046FFF761FE0095ADF80C4037
:100670000C20ADF80A00ADF80840ADF80640ADF822
:100680000440064C6946204600F016F80121204639
:1006900000F006F806B070BD0000024000100140F6
:1006A000002904D0818941F40051818170478189FA
:1006B00021F40051818170477FB504460D46208AA0
:1006C00020F44051E88808432082A08941F20C615F
:1006D0008843A9882A8911436A8902431143A18169
:1006E000A08A20F44071A8890843A0826846FFF7D9
:1006F00099FE1E48844202D01D48844201D10398CD
:1007000000E00298A189090408D500EBC00101EBC3
:10071000001029684900B0FBF1F007E000EBC001D0
:1007200001EB001029688900B0FBF1F06422B0FBF6
:10073000F2F109010B096FF018056B4300EB830020
:10074000A3891D044FF0320307D503EBC000B0FBB3
:10075000F2F000F00700084306E003EB0010B0FBE6
:10076000F2F000F00F00084320817FBD001001402F
:1007700000140140FEE700000FB4054B10B503A9BB
:10078000044A029800F018F810BC5DF814FB000051
:10079000950A0008B000002002E008C8121F08C136
:1007A000002AFAD170477047002001E001C1121FF2
:1007B000002AFBD1704700002DE9FF4F8BB09A460D
:1007C0000F460546002606E025280BD052460D9917
:1007D00090476D1C761C28780028F5D10FB0304664
:1007E000BDE8F08F0024A0460122604900E00443E8
:1007F00015F8013F203B02FA03F00842F7D12878B0
:100800002E2817D115F8010F44F004042A280ED021
:100810006FF02F022878A0F1300109290AD808EBDF
:10082000880102EB410100EB01086D1CF2E757F86B
:10083000048B6D1C287869283ED006DC0028CDD0BA
:1008400063280BD0642804D136E0732810D07528B3
:100850004BD052460D999047761C85E017F8040B53
:100860008DF8000000208DF80100E946012003E02A
:1008700057F8049B4FF0FF3061074FF0000401D49C
:100880000AE0641C44450DDA8442FADB19F80410CE
:100890000029F6D106E0641C8442FCDB19F8041040
:1008A0000029F8D1264404E019F8010B52460D99AD
:1008B0009047641EF8D257E001CF4FF00A0B002892
:1008C00002DA40422D2102E0210504D52B218DF8CA
:1008D0002410012103E0E10705D02021F7E70DF105
:1008E000200908910CE00021F9E701CF4FF00A0B35
:1008F000F9E75946FFF7F0FC01F1300209F8012D44
:100900000028F6D1ADEB090000F1200B600701D4FF
:100910004FF00108D84502DDA8EB0B0000E00020F5
:100920008046002406E009A85246005D0D999047D4
:10093000641C761C08988442F5DB04E030205246A3
:100940000D999047761CB8F10001A8F10108F5DC7B
:1009500005E019F8010B52460D999047761CBBF142
:100960000001ABF1010BF4DC6D1C34E70928010038
:100970007CB51F491FA0FFF7FFFE0024224802217B
:10098000CDE900100023782220A1224801F058F977
:100990001D480321001DCDE90010002378221EA16F
:1009A0001F4801F04DF9184804210830CDE9001026
:1009B000002378221BA11D4801F042F900F06AFDD6
:1009C00000F088FD4FF47A752146641C18A0FFF7EB
:1009D000D3FE284600F022FE022CF5DB1FA0FFF715
:1009E000CBFE0948C068BDE87C4000F03FBE000077
:1009F0004C200008095B6D61696E5D696E666F3A37
:100A000025730D0A00000000A00000207461736BC4
:100A100031000000A11300087461736B3200000004
:100A2000D51300086C65645461736B00DD0A00081F
:100A3000095B6D61696E5D696E666F3A74686973B2
:100A4000206973206372656174207461736B3A6905
:100A5000646C652D25640D0A00000000095B6D6162
:100A6000696E5D696E666F3A64656C657465206376
:100A700072656174207461736B0D0A0010B56FF0BC
:100A80000400FFF779FD4FF0E020016921F001013A
:100A9000016110BD03490A885206FCD5C2B28A80A2
:100AA00070470000001001401CB501210420FFF731
:100AB0009DFC01208DF8040000218DF806108DF8B2
:100AC000070002208DF8050080200090694602484A
:100AD000FFF72CFC1CBD000000080240084D4FF43D
:100AE000FA7480212846FFF76FFC204600F096FD3F
:100AF00080212846FFF76BFC204600F08FFDF0E7D1
:100B0000000802404FF4E130FFF788FDFFF7CCFF0B
:100B1000FFF7B4FF00F00AFCFEE700002DE9F0410A
:100B200004460F46194DEE682868001D00F06CFC65
:100B3000601C15D1A7B1164948682A689060826880
:100B40002B68DA602A688368121D5A602A68121DB1
:100B50008260286841610868401C0860BDE8F08137
:100B6000344428684460B44206D22968E86B091D01
:100B7000BDE8F04100F069BC2968A86B091D00F0D0
:100B800064FCA86A8442E9D2AC62E7E74C0000202A
:100B9000A88D002070B5044600F07CFC244DA868A8
:100BA000401CA860286810B1686938B10CE02C605E
:100BB000A868012808D100F051F905E02868E16A29
:100BC000C06A884200D82C60686A401C6862206451
:100BD000E06A2969884200D92861164A00EB800042
:100BE00002EB80004068A0608168E1608368211D9D
:100BF00059608160E06A00EB800002EB8001616176
:100C000052F82010491C42F8201000F063FC68697B
:100C100000280CD02868E16AC06A884207D20649D9
:100C20004FF080500860BFF34F8FBFF36F8F70BDE0
:100C30004C000020F48C002004ED00E010B500F022
:100C400029FC0E4C2068A0B90D4800F0F0FB0C48C0
:100C5000143000F0ECFB0A48E06014302061002200
:100C60000C210A2000F08CFE206010B105A100F0DC
:100C70008BFCBDE8104000F02DBC00008C00002073
:100C8000BC8D0020546D72510000000070B50C4DF9
:100C90000C4E11E000F0FEFBF068C468201D00F06F
:100CA000B3FBA868401EA8606868401E686000F03A
:100CB00011FC204600F01CF868680028EAD170BDDD
:100CC0004C000020948D002030B40B46026C002AAA
:100CD0000CD0C1681144C1608468A14201D301688D
:100CE000C160C16830BC1846FFF7D2BA30BC70474B
:100CF00010B50446206B00F003FC2046BDE8104010
:100D000000F0FEBB0749CA681168002904D0002121
:100D1000016019B1002070470121F9E7D06800682F
:100D2000704700008C0000204FF40C410E48420731
:100D300006D0C01D20F007000B49411AC1F50C4137
:100D40000A4B186000225A600144083921F007015B
:100D5000143B19604A600A600A1A426001604068E8
:100D60009860586070470000B400002038000020F0
:100D7000074E4FF08054074DFFF788FF3068012879
:100D8000FAD92C60BFF34F8FBFF36F8FF4E70000E9
:100D9000F48C002004ED00E070B51D46049C002991
:100DA00009D02260E06321640121204600F010FE9A
:100DB00084F84C5070BD2460F4E72DE9F04781467B
:100DC000DDE908680A9C0D4617469A46B900A52237
:100DD000206BFFF76FFA206B7F1E00EB870020F07F
:100DE0000707780707D0502080F31188BFF34F8F93
:100DF000BFF36F8FFEE765B100202218295C82F8EF
:100E00003410295C11B1401C0A28F6D3002084F864
:100E10003D00052E07D3502080F31188BFF34F8F7C
:100E2000BFF36F8FFEE7E662A664201D00F00AFBA9
:100E300004F1180000F006FB2461C6F10500A06172
:100E4000646252464946384600F05EFA2060B8F1C6
:100E5000000F01D0C8F80040BDE8F08770B500244D
:100E6000124D04EB840005EB800000F0E0FA641CF6
:100E7000052CF6D30D48643000F0D9FA0B487830D1
:100E800000F0D5FA09488C3000F0D1FA0748A030BC
:100E900000F0CDFA0548B43000F0C9FA034904481F
:100EA000643181631431C16370BD0000F48C002093
:100EB0004C00002030B5134900E011460A68824218
:100EC000FBD34B685C18844203D1406818444860E7
:100ED00008460D6844682318AB420DD1094B143BFA
:100EE0001B689A4206D05268224442600A6812681F
:100EF000026002E0036000E00260814200D008600E
:100F000030BD00003800002070B500244160006151
:100F10000C4D91420AD8D11A8269914201D3012421
:100F20000EE0011D286900F090FA09E09A4203D210
:100F3000994201D3012403E0011DE86800F085FA1D
:100F4000204670BD8C00002010B5044600F0A2FAC7
:100F5000A06B20B1002400F0BDFA204610BD012492
:100F6000F9E7000070B505460E460D48C068C06838
:100F7000C468201D00F048FA94F82800410705D500
:100F800032462946204600F0B5F803E000F0FE00A6
:100F900084F828002046216ABDE870400847000018
:100FA0008C0000207FB5374E63E00198002860DB9D
:100FB000039C606910B1201D00F026FA684600F01D
:100FC000BDF8054601980A2853D2DFE800F0520523
:100FD00005282E460505282E94F8280040F001002B
:100FE00084F828000298A169034601442A46204655
:100FF000FFF78AFF40B394F82800410707D502980D
:10100000A1692A460144204600F074F803E000F08C
:10101000FE0084F82800216A2046884729E014F859
:10102000280F00F0FE00207023E094F8280040F024
:10103000010084F828000298A06130B141192B46C4
:101040002A462046FFF760FF13E0502080F3118806
:10105000BFF34F8FBFF36F8FFEE794F8280081072F
:1010600003D4204600F04CFA03E000F0FE0084F8C0
:101070002800002201A9306800F004FD002894D166
:101080007FBD00008C000020F8B506460D4600F03C
:10109000C1FB684600F052F80446009810B100F019
:1010A0001BFFF8BD45B9A64206D800F015FF214642
:1010B0003046FFF757FFF8BD0C481DB101690968BC
:1010C00091B10025311B2A46006800F083FA00F038
:1010D00003FF0028EFD106494FF080500860BFF3AE
:1010E0004F8FBFF36F8FF8BD0125EBE78C00002019
:1010F00004ED00E070B505460C46164604E0A8690C
:101100000444296A28468847A869234601193246BB
:101110002846FFF7F9FE0028F1D170BD0648816B23
:101120000968002904D0816BC96809688162704729
:101130004FF0FF31816270474C00002070B50546CA
:1011400000F0C0FD0446074EB068844204D200F0AF
:101150000BF80120286001E000202860B4602046E0
:1011600070BD00008C00002070B5094C4FF0FF35B9
:1011700004E0C06800682946FFF7F4FEE0680268F2
:10118000002AF6D1E0682169E160206170BD0000AD
:101190008C00002009484068401C07D0502080F394
:1011A0001188BFF34F8FBFF36F8FFEE7502080F39E
:1011B0001188BFF34F8FBFF36F8FFEE74000002011
:1011C00008B56846FFF79EFD0099FFF75DFFFFF742
:1011D000E9FEF6E72DE9F041044600F05BF994F9E9
:1011E000455004F1240609E0606A48B1304600F039
:1011F00005FE08B100F08CFA6D1E6DB2002DF3DC17
:101200004FF0FF3684F8456000F064F900F042F9D1
:1012100094F9445004F1100709E0206948B13846B8
:1012200000F0ECFD08B100F073FA6D1E6DB2002DF8
:10123000F3DC84F84460BDE8F04100F04BB90000F5
:101240002DE9F0410546002600F0E4FA2D4F3868FC
:1012500008B9FFF769FD4DB105F00700C0F11000B6
:10126000C1438D4201D8054400E00025002D39DD41
:101270007868854236D8234914310846046801E06D
:10128000214604466068A84202D220680028F7D1AF
:101290003868844226D00E68083620680860606886
:1012A000411B10290ED96019420707D0502080F346
:1012B0001188BFF34F8FBFF36F8FFEE7416065600A
:1012C000FFF7F8FD61687868401A7860BA68904264
:1012D00000D2B86041F00040606000202060F868F3
:1012E000401CF86000F0F8FD700707D0502080F334
:1012F0001188BFF34F8FBFF36F8FFEE73046BDE815
:10130000F08100002400002024384FF08073036235
:1013100021F00101C1610449816142606FF0020165
:1013200040F8201970470000951100081CB54FF4D3
:101330004070FFF751F80BA0FFF71EFA1348012188
:10134000CDE900108A02002311A1144800F078FCB6
:101350000446012C02D04FF0FF301CBD00F022FAF1
:1013600020461CBD095B6D61696E5D696E666F3AF2
:101370004672656572746F73207631302E332E316C
:10138000207374617274200D0A000000AC0000200C
:1013900063726561745F7461736B000071090008AA
:1013A00000244FF47A75214604A0FFF7E5F9641C88
:1013B000E4B2284600F032F9F5E70000095B6D6100
:1013C000696E5D64656275673A7461736B3120257F
:1013D000640D0A0000244FF4FA75214604A0FFF7BB
:1013E000CBF9641CE4B2284600F018F9F5E70000D8
:1013F000095B6D61696E5D64656275673A746173FE
:101400006B322025640D0A000169D0E901329A602F
:10141000D0E901235A604A68824201D182684A6059
:10142000002202610868401E08600868704700F1E9
:10143000080141604FF0FF328260C160016100210C
:101440000160704700210161704730B50C68621C73
:1014500002D000F1080202E0026904E01A46536873
:101460001D68A542FAD953684B6099608A60516043
:1014700008610168491C016030BD42684A60936898
:101480008B6093685960916008610168491C016034
:1014900070470000502080F31188BFF34F8FBFF3D7
:1014A0006F8F0A494868401C486001280CD10848E1
:1014B000006810F0FF0F07D0502080F31188BFF3B1
:1014C0004F8FBFF36F8FFEE7704700004000002092
:1014D00004ED00E009494868002806D0401E486035
:1014E000002801D180F311887047502080F31188C3
:1014F000BFF34F8FBFF36F8FFEE700004000002067
:1015000070B500282AD0083804466068002807DB38
:10151000502080F31188BFF34F8FBFF36F8FFEE72A
:10152000216839B1502080F31188BFF34F8FBFF38A
:101530006F8FFEE720F00040606000F06BF9084D0F
:1015400060686968084468602046FFF7B3FC286952
:10155000401C2861BDE8704000F0BEBC70BD0000BA
:10156000240000204FF0E020002101618161054945
:101570004FF47A720968B1FBF2F1491E416107210B
:10158000016170471000002070B5002300280AD0C8
:10159000C9B100220E4D05EBC204666886420AD12D
:1015A00005EBC2030FE0502080F31188BFF34F8F8B
:1015B000BFF36F8FFEE71BB955F8326006B92346BB
:1015C000521C082AE7D3002B01D01960586070BD67
:1015D000B48C002070B504460D461646FFF75AFF3E
:1015E00094F944304FF000005B1C01D184F84400B2
:1015F00094F94510491C01D184F84500FFF76AFFB2
:10160000A06B28B93246294604F1240000F0A0F866
:101610002046BDE87040FFF7DDBD000010B5024672
:101620000020002A12D00F48406B38B1502080F3C0
:101630001188BFF34F8FBFF36F8FFEE700F0EAF81A
:1016400000211046FFF76AFA00F046FC002807D197
:1016500005494FF080500860BFF34F8FBFF36F8F85
:1016600010BD00004C00002004ED00E070B5044601
:10167000FFF710FF1F4D04B92C68201DFFF7C4FEB3
:10168000A06A18B104F11800FFF7BEFE686A401C9A
:1016900068622868844207D1211D1748FFF7EDFED4
:1016A0006868401C686004E0A868401EA860FFF7F6
:1016B00035FDFFF70FFF2868844202D02046FFF770
:1016C00017FB6869002814D02868844211D1686B20
:1016D00038B1502080F31188BFF34F8FBFF36F8F65
:1016E000FEE706494FF080500860BFF34F8FBFF30D
:1016F0006F8F70BD4C000020948D002004ED00E041
:1017000002490A6A0260C968416070474C000020C3
:1017100001490120C86170474C00002010B50C46FB
:1017200000280AD0094909681831FFF78EFE2046C3
:10173000BDE810400121FFF7F1B9502080F3118876
:10174000BFF34F8FBFF36F8FFEE700004C00002008
:10175000F0B40C4600281AD04168114B1D68E961AD
:101760008D681E6835621D688E68183575601D6845
:1017700018358D60196888620168491C01600AB1DA
:101780004FF0FF342046F0BC1146FFF7C7B9502098
:1017900080F31188BFF34F8FBFF36F8FFEE7000018
:1017A0004C0000207CB517480025CDE900502B46A1
:1017B000822215A1164800F043FA012801D100F059
:1017C0001DFC104C2C3C012802D0401C11D00EE016
:1017D000502080F31188BFF34F8FBFF36F8F4FF00E
:1017E000FF30A06201206061E56000F04FF8206BDF
:1017F0007CBD502080F31188BFF34F8FBFF36F8FF4
:10180000FEE700007800002049444C45000000003D
:10181000710D00080248416B491C4163704700008C
:101820004C00002010B5174B586B002802D0012047
:10183000D86110BD0020D8611869134901E0C0B11A
:10184000401E00EB800251F82220002AF7D000EB66
:10185000800201EB82014A6852684A6001F1080483
:10186000A24201D152684A604968C968196018618A
:1018700010BD502080F31188BFF34F8FBFF36F8FDF
:10188000FEE700004C000020F48C00201CB5374817
:101890000168374A914207D1502080F31188BFF385
:1018A0004F8FBFF36F8FFEE700683149491E8842B2
:1018B00007D1502080F31188BFF34F8FBFF36F8F94
:1018C000FEE72C4908780190FF2008700878009006
:1018D0009DF800009DF8002000F0F000904207D035
:1018E000502080F31188BFF34F8FBFF36F8FFEE757
:1018F0009DF80000204C00F0500020700720A060F0
:1019000006E0A068401EA0609DF800004000009026
:101910009DF800000006F4D4A068032807D05020EA
:1019200080F31188BFF34F8FBFF36F8FFEE74FF443
:101930004070A060019808700C482030016841F4A4
:1019400070010160016841F070410160FFF70AFE1B
:1019500000206060FEF74EFC0848016841F04041FD
:101960000160FEF733FC00201CBD000000ED00E02C
:1019700071C20F4100E400E04000002034EF00E0BD
:10198000F8B505460E461746002D19D04FF0FF302A
:10199000B0FBF5F0B04213D305FB06F010F1510F88
:1019A0000ED85030FFF74CFC04463CB12246503272
:1019B0003B46314628460094FFF7EEF92046F8BD35
:1019C000502080F31188BFF34F8FBFF36F8FFEE776
:1019D0002DE9F04104460F460125002C2AD0E06B8A
:1019E00080B3AE1EB6FBF0F1206C81423BD3FFF713
:1019F00051FDD4E90F20216802FB0011A1600021F4
:101A0000A16321686160E06B2268216C401E00FBCD
:101A10000121E16084F8446084F8456004F110001D
:101A20008FB1FFF704FD04F12400FFF700FDFFF77D
:101A300051FD19E0502080F31188BFF34F8FBFF3A1
:101A40006F8FFEE70FE021690029F0D000F0D6F992
:101A50000028ECD00A494FF080500860BFF34F8F48
:101A6000BFF36F8FE3E7002515B12846BDE8F0818D
:101A7000502080F31188BFF34F8FBFF36F8FFEE7C5
:101A800004ED00E02DE9F74783B004468A460026BE
:101A9000002C03D0BAF1000F08D011E0502080F3E1
:101AA0001188BFF34F8FBFF36F8FFEE7206C38B103
:101AB000502080F31188BFF34F8FBFF36F8FFEE785
:101AC00000F0F2F848B9059838B1502080F3118839
:101AD000BFF34F8FBFF36F8FFEE700274FF08058A3
:101AE000DFF8D890FFF7D6FCA56BC5B1514620466C
:101AF000FFF7EAF86D1EA563206950B104F11000EC
:101B000000F07CF928B1C9F80080BFF34F8FBFF314
:101B10006F8FFFF7DFFC012006B0BDE8F087059866
:101B200008B126B107E0FFF7D5FC0020F4E701A8D3
:101B3000FFF7E6FD0126FFF7CDFCFFF76BFEFFF791
:101B4000A9FC94F94400401C01D184F8447094F934
:101B50004500401C01D184F84570FFF7BBFC05A986
:101B600001A800F02DF858B12046FFF733FB00F034
:101B7000B3F92046FFF7E8F90028B3D00020CBE7FF
:101B80002046FFF7E1F990B104F124000599FFF731
:101B9000C5FD2046FFF71EFB00F09EF90028A1D1ED
:101BA000C9F80080BFF34F8FBFF36F8F9AE72046CD
:101BB000FFF710FB00F090F994E7000004ED00E05F
:101BC0002DE9F04105460C46002D14D0DCB1FFF79D
:101BD00061FC1A4EF0686B68C11A2268571C1AD053
:101BE0002F68D6F820C00026674516D0834214D847
:101BF000012526601CE0502080F31188BFF34F8F31
:101C0000BFF36F8FFEE7502080F31188BFF34F8F33
:101C1000BFF36F8FFEE700250AE08A4206D9501A0B
:101C200020602846FFF76CFD002501E026600125B5
:101C3000FFF750FC2846BDE8F08100004C00002072
:101C40002DE9FF5F8146DDE90E788A4616469B4600
:101C5000B000FFF7F5FA054628000ED05820FFF730
:101C6000EFFA04462CB158212046FEF72AFB2563E3
:101C700004E02846FFF744FC00E000248CB100207B
:101C8000CDE90240CDE900785B46324651464846F0
:101C9000FFF793F82046FEF77DFF012004B0BDE872
:101CA000F09F4FF0FF30F9E705484169002903D064
:101CB000406B18B100207047012070470220704728
:101CC0004C0000200148C068704700004C00002014
:101CD0002DE9F0410025474E706B002805D0B06912
:101CE000401CB0612846BDE8F081F468641CF460D3
:101CF0009CB9B06B006838B1502080F31188BFF3F5
:101D00004F8FBFF36F8FFEE7B06BF16BB163F06382
:101D1000306A401C3062FFF701FAB06A364F8442E5
:101D20000FD34FF0000CB06B006838B1B06BC068D7
:101D3000C1684868844212D2B06202E04FF0FF30BE
:101D4000B0623068C06A00EB800057F820000128BC
:101D500000D90125F0690028C4D00125C2E74A69ED
:101D6000D1E902309860D1E90203586050680B1D38
:101D7000984201D1C8685060C1F814C01068401E74
:101D800010608A6A9AB1D1E90780C8F80800D1E9E1
:101D90000708C8F80400506801F11808404501D14F
:101DA000086A5060C1F828C01068401E1060C86AF8
:101DB0003269904200D9306100EB800007EB80006F
:101DC00042688A609068C860906843609360C86A9F
:101DD00000EB800007EB80024A6157F82020521C7C
:101DE00047F82020C86A3168C96A88429BD9012512
:101DF00099E700004C000020F48C002030B5C0684A
:101E0000C06800282AD0816AD0E907329A60D0E9F8
:101E100007235A604B6800F11802934201D1036A0C
:101E20004B60002484620B685B1E0B60284B596B6F
:101E3000E1B1284C6168C1618D6805628D686A6096
:101E40008A6084622168491C2160C06A1968C96A75
:101E500088423AD901200121D96130BD502080F358
:101E60001188BFF34F8FBFF36F8FFEE74169D0E951
:101E70000252AA60D0E902256A604D68021D9542AF
:101E800001D1C5684D6044610C68641E0C60C16A74
:101E90001C69A14200D919610E4C01EB81018C3CF7
:101EA00004EB8101496881608D68C5608D686A6056
:101EB0008A60C16A01EB810104EB8102426154F83E
:101EC0002120521C44F82120BFE7002030BD000033
:101ED0004C000020808D00202DE9F0410024A04618
:101EE000434D686B002807D0FFF7D4FA686B401E9B
:101EF0006863686B40B176E0502080F31188BFF3CF
:101F00004F8FBFF36F8FFEE7A86800286BD00026C5
:101F1000384A01274BE0D068C468A16AD4E90703B6
:101F20008360D4E9070358604B6804F118008342CA
:101F300001D1206A4860A6620868401E0860616995
:101F4000D4E902309860D4E9020358604B68201D40
:101F5000834201D1E3684B6066610B685B1E0B60D6
:101F6000E16A2B69994200D92961224B01EB810179
:101F70008C3B03EB81014968A160D1F808C0C4F82B
:101F80000CC0D1F808C0CCF804008860E06A00EB0F
:101F9000800003EB8001616153F82010491C43F875
:101FA0002010E06A2968C96A884200D3EF6110688E
:101FB0000028B0D10CB1FFF7B1F8AC693CB1FFF724
:101FC00087FE00B1EF61641E002CF8D1AE61E869B4
:101FD00048B14FF0010808494FF080500860BFF346
:101FE0004F8FBFF36F8FFFF775FA4046BDE8F08162
:101FF0004C000020808D002004ED00E01CB5002482
:10200000FEF71CFE0D48006860B10C480221001D5F
:10201000CDE9001000234FF4827209A10A48FFF7AE
:102020000FFE04460CB120461CBD502080F31188E1
:10203000BFF34F8FBFF36F8FFEE700008C000020CF
:10204000546D722053766300C1110008637265619C
:10205000745F7461736B000078200008000000203A
:10206000B4000000980700082C210008B4000020EC
:1020700034910000A80700080000000001020304DA
:10208000010203040607080900BD01050000000065
:102090000000000001020304060708090000000018
:1020A0000000000000000000000000000000000030
:1020B000000000000000000000000000AAAAAAAA78
:1020C0000000000000000000000000000000000010
:1020D0000000000000000000000000000000000000
:1020E00000000000000000000000000000000000F0
:1020F00000000000040000000000000000000000DC
:1021000000000000000000000000000000000000CF
:1021100000000000000000000000000000000000BF
:0C212000000000000000000000000000B3
:040000050800019559
:00000001FF
