:020000040800F2
:1000000030040020AD010008A30200089F02000890
:10001000A1020008F5010008210600080000000008
:100020000000000000000000000000008103000844
:10003000F701000800000000A502000855040008B0
:10004000C7010008C7010008C7010008C701000870
:10005000C7010008C7010008C7010008C701000860
:10006000C7010008C7010008C7010008C701000850
:10007000C7010008C7010008C7010008C701000840
:10008000C7010008C7010008C70100080000000000
:10009000000000000000000000000000C701000890
:1000A000C7010008C7010008C7010008C701000810
:1000B000C7010008C7010008C7010008C701000800
:1000C000C7010008C7010008C7010008C7010008F0
:1000D000C7010008C7010008C701000800000000B0
:1000E000C7010008C7010008C701000800000000A0
:1000F000000000000000000000000000C701000830
:1001000000000000C7010008C7010008C70100087F
:1001100000000000000000000000000000000000DF
:10012000C7010008C7010008C7010008C70100088F
:10013000C7010008000000000000000000000000EF
:10014000000000000000000000000000C7010008DF
:10015000C7010008C7010008C7010008C70100085F
:10016000C7010008C70100080000000000000000EF
:10017000000000000000000000000000000000007F
:1001800000000000C701000800000000000000009F
:10019000C7010008DFF810D000F01AF80048004747
:1001A00061070008AFF30080300400200648804754
:1001B00006480047FEE7FEE7FEE7FEE7FEE7FEE74C
:1001C000FEE7FEE7FEE7FEE7590400089501000898
:1001D000064C074D06E0E06840F0010394E8070094
:1001E00098471034AC42F6D3FFF7D8FFDC0700087D
:1001F000FC070008FEE770472DE9F04100220127C7
:100200004FF0030C07FA02F50B682B40AB422CD1E0
:10021000066853000CFA03F4A64306600E79D0F882
:1002200000809E4046EA080606600E79012E01D045
:10023000022E12D18668A64386604E79D0F80880D7
:100240009E4046EA080686604668AE4346604568BA
:100250008E799640B6B235434560C568A543C56002
:10026000CC799C40C3681C43C460521C102AC9D37B
:10027000BDE8F08110B54B07DB0E9A40C90800EBD2
:100280008100016A0F249C40A1430162016A11436D
:10029000016210BD09048161704781617047FEE70A
:1002A000FEE7704770470000054A002903D0116837
:1002B000014311607047116881431160704700006D
:1002C00030380240054A002903D01168014311600B
:1002D0007047116881431160704700004438024044
:1002E00070B5244B196801F00C01234C00291ED075
:1002F000661004291DD008291DD00460196801F07A
:10030000F00109091D4A545C0168E14041601C6824
:1003100004F4E054A40A145D21FA04F484601B6818
:1003200003F460435B0BD25CD140C16070BD0460DC
:10033000E4E70660E2E70F4A121F1168C1F3805537
:10034000116801F03F0135B1B6FBF1F11468C4F357
:100350008814614305E0B4FBF1F11468C4F3881418
:1003600061431268C2F30142521C5200B1FBF2F128
:100370000160C3E7083802400024F40000000020B8
:10038000704700000CB500220192009226490868CF
:1003900040F4803008604FF4A043086800F4003057
:1003A00000900198401C0190009810B90198984263
:1003B000F3D10868800302D50120009000E000928C
:1003C000009801282FD118484030026842F080522E
:1003D00002601648026842F4404202601248083047
:1003E0000268026002680260026842F480520260A1
:1003F000031F0F4A1A600A6842F080720A600A6896
:100400009201FCD50B4940F202720A60016821F0AA
:1004100003010160016841F0020101600168C1F35C
:1004200081010229FAD10CBD003802400070004061
:1004300019544107003C02404FF0E021042804D049
:10044000086920F0040008617047086940F0040062
:100450000861704700F02EB810B51248016841F4E9
:10046000700101601048016841F0010101600E4A0D
:1004700000210832116002680C4B1A400260031D13
:100480000B4A1A60026822F48022026006480C308F
:100490000160FFF777FF03494FF000608039086083
:1004A00010BD000088ED00E000380240FFFFF6FEBE
:1004B0001030002403480168002902D00168491E59
:1004C000016070471000002070B586B0054601211C
:1004D0000846FFF7E9FE01211020FFF7F3FE194E51
:1004E000072209213046FFF7C5FE07220A213046C0
:1004F000FFF7C0FE02208DF8140000248DF816408E
:100500004FF4C06004908DF817408DF8154004A991
:100510003046FFF771FE0095ADF80C400C20ADF8A9
:100520000A00ADF80840ADF80640ADF80440064CAE
:100530006946204600F016F80121204600F006F832
:1005400006B070BD0000024000100140002904D038
:10055000818941F4005181817047818921F40051E2
:10056000818170477FB504460D46208A20F44051B2
:10057000E88808432082A08941F20C618843A98859
:100580002A8911436A8902431143A181A08A20F478
:100590004071A8890843A0826846FFF7A1FE1E4863
:1005A000844202D01D48844201D1039800E00298A1
:1005B000A189090408D500EBC00101EB00102968EE
:1005C0004900B0FBF1F007E000EBC00101EB0010C7
:1005D00029688900B0FBF1F06422B0FBF2F1090157
:1005E0000B096FF018056B4300EB8300A3891D0412
:1005F0004FF0320307D503EBC000B0FBF2F000F080
:100600000700084306E003EB0010B0FBF2F000F037
:100610000F00084320817FBD0010014000140140FD
:10062000FEE70000014A024900F013B8190700086C
:100630002800002002E008C8121F08C1002AFAD1D1
:1006400070477047002001E001C1121F002AFBD152
:1006500070472DE9F04116460F460446002503E099
:100660003946B047641C6D1C20780028F8D1284614
:10067000BDE8F08110B56FF00400FFF7DDFE4FF02C
:10068000E020016921F00101016110BD2DE9F04177
:100690000446FFF7EFFF002C37D01D4800254FF030
:1006A000E0221C4E4FF4FA77036817E0B3FBF6F034
:1006B0004FF4FA71484350619561106940F00100B0
:1006C00010611169C80701D0C803FAD5106920F07C
:1006D000010010619561A4F5FA74A4B2BC42E5D89A
:1006E00043F6A400B3FBF0F06043506195611069DC
:1006F00040F0010010611069C10701D0C003FAD5B4
:10070000106920F0010010619561BDE8F0810000E2
:10071000140000202048010003490A885206FCD535
:10072000C2B28A8070470000001001401CB5012150
:100730000420FFF7B9FD01208DF8040000218DF899
:1007400006108DF8070002208DF80500802000902B
:1007500069460248FFF750FD1CBD0000000802403A
:100760004FF4E130FFF7B0FEFFF7E0FFFFF782FF45
:100770000D4D80212846FFF78DFD4FF47A748021BE
:100780002846FFF78AFD09A0FFF74CFF0DA0FFF7F1
:1007900049FF2046FFF77AFF80212846FFF77AFDC0
:1007A0002046FFF773FFEAE700080240095B6D612E
:1007B000696E5D696E666F3A74657374310A0D0A0D
:1007C00000000000095B6D61696E5D696E666F3ADD
:1007D00074657374320A0D0A00000000FC070008FB
:1007E000000000202C000000340600082808000843
:1007F0002C00002004040000440600080000000053
:1008000001020304010203040607080900000000B6
:1008100000BD01050000000000000000010203040B
:080820000607080900000000B2
:040000050800019559
:00000001FF
