:020000040800F2
:1000000010040020A9010008BD020008B502000884
:10001000B9020008F1010008F9050008000000001D
:100020000000000000000000000000009103000834
:10003000F501000800000000C1020008AD0300083F
:10004000C3010008C3010008C3010008C301000880
:10005000C3010008C3010008C3010008C301000870
:10006000C3010008C3010008C3010008C301000860
:10007000C3010008C3010008C3010008C301000850
:10008000C3010008C3010008C3010008000000000C
:10009000000000000000000000000000C301000894
:1000A000C3010008C3010008C3010008C301000820
:1000B000C3010008C3010008C3010008C301000810
:1000C000C3010008C3010008C3010008C301000800
:1000D000C3010008C3010008C301000800000000BC
:1000E000C3010008C3010008C301000800000000AC
:1000F000000000000000000000000000C301000834
:1001000000000000C3010008C3010008C30100088B
:1001100000000000000000000000000000000000DF
:10012000C3010008C3010008C3010008C30100089F
:10013000C3010008000000000000000000000000F3
:10014000000000000000000000000000C3010008E3
:10015000C3010008C3010008C3010008C30100086F
:10016000C3010008C30100080000000000000000F7
:10017000000000000000000000000000000000007F
:1001800000000000C30100080000000000000000A3
:10019000C3010008DFF80CD000F018F80048004751
:1001A0000D07000810040020064880470648004755
:1001B000FEE7FEE7FEE7FEE7FEE7FEE7FEE7FEE717
:1001C000FEE7FEE7C503000895010008064C074D51
:1001D00006E0E06840F0010394E807009847103417
:1001E000AC42F6D3FFF7DAFFDC070008FC07000893
:1001F000FEE70000704700002DE9F041D1F80080D3
:1002000000234FF0030C4FF0010E00240FE000BF5D
:10021000C268AA43C260CA79C5689A402A43C260CC
:100220000134102C03F1020308BFBDE8F08128FA65
:1002300004F5ED07F4D006680CFA03F5AE4306604A
:100240000E79076806FA03F2013E3A43012E026076
:10025000DED88268EE43324082604A798E798768C0
:100260009A403A43826042680EFA04F7BA43426009
:1002700006FA04F2466892B232434260C8E70000D0
:100280001C2303EA810C6FF0030303EA51010844C5
:100290000F23016A03FA0CF399430162016A02FA1F
:1002A0000CF211430162704709048161704700003C
:1002B00081617047FEE70000FEE700007047000024
:1002C00070470000002943F63001C4F202010A68B9
:1002D0000CBF22EA0000104308607047002943F673
:1002E0004401C4F202010A680CBF22EA0000104374
:1002F0000860704710B543F60401C4F202014A6871
:1003000002F00C0342F20042082BC0F2F40206D0C5
:10031000042B20D141F20022C0F27A021BE0D1F876
:1003200000C0D1F800E00B680EF03F0EC3F3881454
:100330005FEA4C2341F20023C0F27A0358BF134610
:10034000B3FBFEF20B686243C3F30143022404EBE8
:100350004303B2FBF3F202604A6840F2CC73C2F38B
:100360000312C0F600039A5C046824FA02F24260A9
:100370004C68C4F382241C5D22FA04F4846049684A
:10038000C1F34231595C22FA01F1C16010BD000095
:10039000704700004EF21001CEF200010A680428F6
:1003A00022F0040208BF04320A60704740F20800DD
:1003B000C2F200000168002908BF704701680139D6
:1003C0000160704782B04EF6885CCEF2000CDCF81B
:1003D000002043F6000142F47002C4F20201CCF89E
:1003E00000200A684FF6FF7042F001020A60002206
:1003F0008A600B68CFF6F6601840086043F2100080
:10040000C2F200404860086820F480200860CA609A
:1004100001920092086840F480300860086800F497
:1004200000300090019801300190009818B90198AF
:10043000B0F5A04FF2D10868800354BF002001201E
:1004400000900098012832D1086C40F08050086478
:1004500047F20000C4F20000026842F44042026029
:100460008868886088688860886840F48050886000
:1004700045F21940C0F241704860086840F0807051
:10048000086000BF08688001FCD540F20270C1F826
:100490000004886820F003008860886840F002004B
:1004A000886000BF886800F00C000828FAD14FF07F
:1004B00000604CF8800C02B070470000B0B586B008
:1004C000044601200121FFF7FDFE10200121FFF766
:1004D00005FF0025C4F20205284609210722FFF77F
:1004E000CFFE28460A210722FFF7CAFE0220059008
:1004F0004FF4C060049004A92846FFF77DFE0094E5
:1005000000204FF44021A5F57044ADF80C00CDE972
:1005100001016946204600F011F82046012100F053
:1005200003F806B0B0BD00008289002918BF012180
:1005300022F4005242EA41318181704770B584B0A3
:100540000446008A0D46C98820F4405008432082A2
:10055000A0894EF6F3110840A9882A896B890843BF
:1005600010431843A081A08AA98920F44070084351
:100570006E46A0823046FFF7BDFE41F2004144F4D2
:100580008060C4F20101884214BF06F1080006F140
:100590000C000068B4F90C100122B1F1FF3FC8BF94
:1005A00002222B681921484303FA02F1B0FBF1F053
:1005B00048F21F51C5F2EB11A0FB01235A096FF05D
:1005C000630302FB0300B4F90C300326B3F1FF3FD1
:1005D000C8BF042600FA06F000F13200A0FB0101BA
:1005E0004FF00700C8BF0F2000EA511040EA021088
:1005F000208104B070BD0000FEE7000080B56FF000
:100600000400FFF7C7FE4EF21000CEF200000168B2
:1006100021F00101016080BDB0B504464EF2100525
:100620006FF00400CEF20005FFF7B4FE2868002C3E
:1006300020F00100286008BFB0BD40F2040CB4F502
:10064000FA7FC2F2000C23D94AF2094EC3F2EE1E21
:100650004FF4FA72002300BFDCF80000A0FB0E018B
:10066000880B50436860AB60286840F00100286048
:10067000286800F001100128FAD02868A4F5FA745F
:1006800020F001002860A0B2B0F5FA7FAB60E3D89B
:10069000DCF8000046F22151C2F22841A0FB010122
:1006A000A0B2C90A484368600020A860286840F0EA
:1006B00001002860286800F001100128FAD028689D
:1006C00020F0010028600020A860B0BD41F20001C8
:1006D000C4F201010A885206FCD5C2B28A80704772
:1006E00080B582B004200121FFF7ECFD40F201202B
:1006F000C0F2001001908020009040F60000C4F28B
:1007000002006946FFF778FD02B080BD40F60004A4
:100710004FF4E130C4F20204FFF7D0FEFFF7E0FF30
:10072000FFF76CFF20468021FFF7BEFD0CA511A648
:1007300020468021FFF7BCFD284600F035F8304602
:1007400000F032F84FF47A70FFF766FF2046802100
:10075000FFF7AAFD4FF47A70FFF75EFFE8E700BFEE
:10076000095B6D61696E5D696E666F3A746573747D
:10077000310A0D00095B6D61696E5D696E666F3AE5
:1007800074657374320A0D0002E008C8121F08C1B4
:10079000002AFAD170477047002001E001C1121F02
:1007A000002AFBD17047000010B5044601E0FFF7B6
:1007B0008DFF14F8010B04490028F8D1BDE8104062
:1007C0000A20FFF783BF00000000002000000000A7
:1007D00001020304010203040607080900080008D7
:1007E0000000002008000000880700080808000832
:1007F000080000200804000098070008000000001E
:080800000000000000BD01052D
:040000050800019559
:00000001FF
